{
  "_format": "hh-sol-artifact-1",
  "contractName": "Rally3",
  "sourceName": "contracts/Rally3.sol",
  "abi": [
    {
      "inputs": [
        {
          "internalType": "address",
          "name": "_imx",
          "type": "address"
        }
      ],
      "stateMutability": "nonpayable",
      "type": "constructor"
    },
    {
      "anonymous": false,
      "inputs": [
        {
          "indexed": true,
          "internalType": "address",
          "name": "owner",
          "type": "address"
        },
        {
          "indexed": true,
          "internalType": "address",
          "name": "approved",
          "type": "address"
        },
        {
          "indexed": true,
          "internalType": "uint256",
          "name": "tokenId",
          "type": "uint256"
        }
      ],
      "name": "Approval",
      "type": "event"
    },
    {
      "anonymous": false,
      "inputs": [
        {
          "indexed": true,
          "internalType": "address",
          "name": "owner",
          "type": "address"
        },
        {
          "indexed": true,
          "internalType": "address",
          "name": "operator",
          "type": "address"
        },
        {
          "indexed": false,
          "internalType": "bool",
          "name": "approved",
          "type": "bool"
        }
      ],
      "name": "ApprovalForAll",
      "type": "event"
    },
    {
      "anonymous": false,
      "inputs": [
        {
          "indexed": false,
          "internalType": "address",
          "name": "to",
          "type": "address"
        },
        {
          "indexed": false,
          "internalType": "uint256",
          "name": "id",
          "type": "uint256"
        },
        {
          "indexed": false,
          "internalType": "bytes",
          "name": "blueprint",
          "type": "bytes"
        }
      ],
      "name": "AssetMinted",
      "type": "event"
    },
    {
      "anonymous": false,
      "inputs": [
        {
          "indexed": false,
          "internalType": "address",
          "name": "sender",
          "type": "address"
        },
        {
          "indexed": false,
          "internalType": "uint256",
          "name": "tokenId",
          "type": "uint256"
        }
      ],
      "name": "DriverNFTMinted",
      "type": "event"
    },
    {
      "anonymous": false,
      "inputs": [
        {
          "indexed": true,
          "internalType": "address",
          "name": "previousOwner",
          "type": "address"
        },
        {
          "indexed": true,
          "internalType": "address",
          "name": "newOwner",
          "type": "address"
        }
      ],
      "name": "OwnershipTransferred",
      "type": "event"
    },
    {
      "anonymous": false,
      "inputs": [
        {
          "indexed": true,
          "internalType": "address",
          "name": "from",
          "type": "address"
        },
        {
          "indexed": true,
          "internalType": "address",
          "name": "to",
          "type": "address"
        },
        {
          "indexed": true,
          "internalType": "uint256",
          "name": "tokenId",
          "type": "uint256"
        }
      ],
      "name": "Transfer",
      "type": "event"
    },
    {
      "inputs": [
        {
          "internalType": "address",
          "name": "to",
          "type": "address"
        },
        {
          "internalType": "uint256",
          "name": "tokenId",
          "type": "uint256"
        }
      ],
      "name": "approve",
      "outputs": [],
      "stateMutability": "nonpayable",
      "type": "function"
    },
    {
      "inputs": [
        {
          "internalType": "address",
          "name": "owner",
          "type": "address"
        }
      ],
      "name": "balanceOf",
      "outputs": [
        {
          "internalType": "uint256",
          "name": "",
          "type": "uint256"
        }
      ],
      "stateMutability": "view",
      "type": "function"
    },
    {
      "inputs": [
        {
          "internalType": "uint256",
          "name": "",
          "type": "uint256"
        }
      ],
      "name": "blueprints",
      "outputs": [
        {
          "internalType": "bytes",
          "name": "",
          "type": "bytes"
        }
      ],
      "stateMutability": "view",
      "type": "function"
    },
    {
      "inputs": [],
      "name": "checkIfUserHasNFT",
      "outputs": [
        {
          "components": [
            {
              "internalType": "uint256",
              "name": "power",
              "type": "uint256"
            },
            {
              "internalType": "uint256",
              "name": "points",
              "type": "uint256"
            }
          ],
          "internalType": "struct Rally3.DriverAttributes",
          "name": "",
          "type": "tuple"
        }
      ],
      "stateMutability": "view",
      "type": "function"
    },
    {
      "inputs": [],
      "name": "driverPointsInc",
      "outputs": [],
      "stateMutability": "nonpayable",
      "type": "function"
    },
    {
      "inputs": [
        {
          "internalType": "uint256",
          "name": "tokenId",
          "type": "uint256"
        }
      ],
      "name": "getApproved",
      "outputs": [
        {
          "internalType": "address",
          "name": "",
          "type": "address"
        }
      ],
      "stateMutability": "view",
      "type": "function"
    },
    {
      "inputs": [],
      "name": "imx",
      "outputs": [
        {
          "internalType": "address",
          "name": "",
          "type": "address"
        }
      ],
      "stateMutability": "view",
      "type": "function"
    },
    {
      "inputs": [],
      "name": "increasePower",
      "outputs": [],
      "stateMutability": "nonpayable",
      "type": "function"
    },
    {
      "inputs": [
        {
          "internalType": "address",
          "name": "owner",
          "type": "address"
        },
        {
          "internalType": "address",
          "name": "operator",
          "type": "address"
        }
      ],
      "name": "isApprovedForAll",
      "outputs": [
        {
          "internalType": "bool",
          "name": "",
          "type": "bool"
        }
      ],
      "stateMutability": "view",
      "type": "function"
    },
    {
      "inputs": [],
      "name": "mintDriverNFT",
      "outputs": [],
      "stateMutability": "nonpayable",
      "type": "function"
    },
    {
      "inputs": [
        {
          "internalType": "address",
          "name": "user",
          "type": "address"
        },
        {
          "internalType": "uint256",
          "name": "quantity",
          "type": "uint256"
        },
        {
          "internalType": "bytes",
          "name": "mintingBlob",
          "type": "bytes"
        }
      ],
      "name": "mintFor",
      "outputs": [],
      "stateMutability": "nonpayable",
      "type": "function"
    },
    {
      "inputs": [],
      "name": "name",
      "outputs": [
        {
          "internalType": "string",
          "name": "",
          "type": "string"
        }
      ],
      "stateMutability": "view",
      "type": "function"
    },
    {
      "inputs": [
        {
          "internalType": "uint256",
          "name": "",
          "type": "uint256"
        }
      ],
      "name": "nftHolderAttributes",
      "outputs": [
        {
          "internalType": "uint256",
          "name": "power",
          "type": "uint256"
        },
        {
          "internalType": "uint256",
          "name": "points",
          "type": "uint256"
        }
      ],
      "stateMutability": "view",
      "type": "function"
    },
    {
      "inputs": [
        {
          "internalType": "address",
          "name": "",
          "type": "address"
        }
      ],
      "name": "nftHolders",
      "outputs": [
        {
          "internalType": "uint256",
          "name": "",
          "type": "uint256"
        }
      ],
      "stateMutability": "view",
      "type": "function"
    },
    {
      "inputs": [],
      "name": "owner",
      "outputs": [
        {
          "internalType": "address",
          "name": "",
          "type": "address"
        }
      ],
      "stateMutability": "view",
      "type": "function"
    },
    {
      "inputs": [
        {
          "internalType": "uint256",
          "name": "tokenId",
          "type": "uint256"
        }
      ],
      "name": "ownerOf",
      "outputs": [
        {
          "internalType": "address",
          "name": "",
          "type": "address"
        }
      ],
      "stateMutability": "view",
      "type": "function"
    },
    {
      "inputs": [],
      "name": "renounceOwnership",
      "outputs": [],
      "stateMutability": "nonpayable",
      "type": "function"
    },
    {
      "inputs": [
        {
          "internalType": "address",
          "name": "from",
          "type": "address"
        },
        {
          "internalType": "address",
          "name": "to",
          "type": "address"
        },
        {
          "internalType": "uint256",
          "name": "tokenId",
          "type": "uint256"
        }
      ],
      "name": "safeTransferFrom",
      "outputs": [],
      "stateMutability": "nonpayable",
      "type": "function"
    },
    {
      "inputs": [
        {
          "internalType": "address",
          "name": "from",
          "type": "address"
        },
        {
          "internalType": "address",
          "name": "to",
          "type": "address"
        },
        {
          "internalType": "uint256",
          "name": "tokenId",
          "type": "uint256"
        },
        {
          "internalType": "bytes",
          "name": "_data",
          "type": "bytes"
        }
      ],
      "name": "safeTransferFrom",
      "outputs": [],
      "stateMutability": "nonpayable",
      "type": "function"
    },
    {
      "inputs": [
        {
          "internalType": "address",
          "name": "operator",
          "type": "address"
        },
        {
          "internalType": "bool",
          "name": "approved",
          "type": "bool"
        }
      ],
      "name": "setApprovalForAll",
      "outputs": [],
      "stateMutability": "nonpayable",
      "type": "function"
    },
    {
      "inputs": [
        {
          "internalType": "bytes4",
          "name": "interfaceId",
          "type": "bytes4"
        }
      ],
      "name": "supportsInterface",
      "outputs": [
        {
          "internalType": "bool",
          "name": "",
          "type": "bool"
        }
      ],
      "stateMutability": "view",
      "type": "function"
    },
    {
      "inputs": [],
      "name": "symbol",
      "outputs": [
        {
          "internalType": "string",
          "name": "",
          "type": "string"
        }
      ],
      "stateMutability": "view",
      "type": "function"
    },
    {
      "inputs": [
        {
          "internalType": "uint256",
          "name": "_tokenId",
          "type": "uint256"
        }
      ],
      "name": "tokenURI",
      "outputs": [
        {
          "internalType": "string",
          "name": "",
          "type": "string"
        }
      ],
      "stateMutability": "view",
      "type": "function"
    },
    {
      "inputs": [
        {
          "internalType": "address",
          "name": "from",
          "type": "address"
        },
        {
          "internalType": "address",
          "name": "to",
          "type": "address"
        },
        {
          "internalType": "uint256",
          "name": "tokenId",
          "type": "uint256"
        }
      ],
      "name": "transferFrom",
      "outputs": [],
      "stateMutability": "nonpayable",
      "type": "function"
    },
    {
      "inputs": [
        {
          "internalType": "address",
          "name": "newOwner",
          "type": "address"
        }
      ],
      "name": "transferOwnership",
      "outputs": [],
      "stateMutability": "nonpayable",
      "type": "function"
    }
  ],
  "bytecode": "0x60806040523480156200001157600080fd5b50604051620049dc380380620049dc83398181016040528101906200003791906200049c565b33816040518060400160405280600881526020017f52616c6c79332e300000000000000000000000000000000000000000000000008152506040518060400160405280600681526020017f52414c4c593300000000000000000000000000000000000000000000000000008152508160009080519060200190620000bd929190620003d5565b508060019080519060200190620000d6929190620003d5565b505050620000f9620000ed620001c760201b60201c565b620001cf60201b60201c565b80600760006101000a81548173ffffffffffffffffffffffffffffffffffffffff021916908373ffffffffffffffffffffffffffffffffffffffff160217905550600073ffffffffffffffffffffffffffffffffffffffff168273ffffffffffffffffffffffffffffffffffffffff161415620001ad576040517f08c379a0000000000000000000000000000000000000000000000000000000008152600401620001a4906200055f565b60405180910390fd5b620001be826200029560201b60201c565b50505062000708565b600033905090565b6000600660009054906101000a900473ffffffffffffffffffffffffffffffffffffffff16905081600660006101000a81548173ffffffffffffffffffffffffffffffffffffffff021916908373ffffffffffffffffffffffffffffffffffffffff1602179055508173ffffffffffffffffffffffffffffffffffffffff168173ffffffffffffffffffffffffffffffffffffffff167f8be0079c531659141344cd1fd0a4f28419497f9722a3daafe3b4186f6b6457e060405160405180910390a35050565b620002a5620001c760201b60201c565b73ffffffffffffffffffffffffffffffffffffffff16620002cb620003ab60201b60201c565b73ffffffffffffffffffffffffffffffffffffffff161462000324576040517f08c379a00000000000000000000000000000000000000000000000000000000081526004016200031b9062000581565b60405180910390fd5b600073ffffffffffffffffffffffffffffffffffffffff168173ffffffffffffffffffffffffffffffffffffffff16141562000397576040517f08c379a00000000000000000000000000000000000000000000000000000000081526004016200038e906200053d565b60405180910390fd5b620003a881620001cf60201b60201c565b50565b6000600660009054906101000a900473ffffffffffffffffffffffffffffffffffffffff16905090565b828054620003e390620005e8565b90600052602060002090601f01602090048101928262000407576000855562000453565b82601f106200042257805160ff191683800117855562000453565b8280016001018555821562000453579182015b828111156200045257825182559160200191906001019062000435565b5b50905062000462919062000466565b5090565b5b808211156200048157600081600090555060010162000467565b5090565b6000815190506200049681620006ee565b92915050565b600060208284031215620004af57600080fd5b6000620004bf8482850162000485565b91505092915050565b6000620004d7602683620005a3565b9150620004e4826200064d565b604082019050919050565b6000620004fe601783620005a3565b91506200050b826200069c565b602082019050919050565b600062000525602083620005a3565b91506200053282620006c5565b602082019050919050565b600060208201905081810360008301526200055881620004c8565b9050919050565b600060208201905081810360008301526200057a81620004ef565b9050919050565b600060208201905081810360008301526200059c8162000516565b9050919050565b600082825260208201905092915050565b6000620005c182620005c8565b9050919050565b600073ffffffffffffffffffffffffffffffffffffffff82169050919050565b600060028204905060018216806200060157607f821691505b602082108114156200061857620006176200061e565b5b50919050565b7f4e487b7100000000000000000000000000000000000000000000000000000000600052602260045260246000fd5b7f4f776e61626c653a206e6577206f776e657220697320746865207a65726f206160008201527f6464726573730000000000000000000000000000000000000000000000000000602082015250565b7f4f776e6572206d757374206e6f7420626520656d707479000000000000000000600082015250565b7f4f776e61626c653a2063616c6c6572206973206e6f7420746865206f776e6572600082015250565b620006f981620005b4565b81146200070557600080fd5b50565b6142c480620007186000396000f3fe608060405234801561001057600080fd5b50600436106101735760003560e01c80637df124a1116100de578063b88d4fde11610097578063e0c04ef511610071578063e0c04ef51461044b578063e8b53cd714610455578063e985e9c51461045f578063f2fde38b1461048f57610173565b8063b88d4fde146103e1578063c87b56dd146103fd578063c8cf27f41461042d57610173565b80637df124a11461031e578063883ac0011461034e5780638da5cb5b1461035857806395d89b411461037657806398da4c9514610394578063a22cb465146103c557610173565b806323b872dd1161013057806323b872dd1461024c57806342842e0e146102685780636352211e1461028457806366bf33be146102b457806370a08231146102e4578063715018a61461031457610173565b806301ffc9a71461017857806306fdde03146101a8578063081812fc146101c6578063095ea7b3146101f65780630f08025f1461021257806319ee6e3f14610230575b600080fd5b610192600480360381019061018d9190612c78565b6104ab565b60405161019f91906132ff565b60405180910390f35b6101b061058d565b6040516101bd919061333c565b60405180910390f35b6101e060048036038101906101db9190612cca565b61061f565b6040516101ed9190613231565b60405180910390f35b610210600480360381019061020b9190612bd0565b6106a4565b005b61021a6107bc565b6040516102279190613231565b60405180910390f35b61024a60048036038101906102459190612c0c565b6107e2565b005b61026660048036038101906102619190612aca565b610979565b005b610282600480360381019061027d9190612aca565b6109d9565b005b61029e60048036038101906102999190612cca565b6109f9565b6040516102ab9190613231565b60405180910390f35b6102ce60048036038101906102c99190612cca565b610aab565b6040516102db919061331a565b60405180910390f35b6102fe60048036038101906102f99190612a65565b610b4b565b60405161030b9190613639565b60405180910390f35b61031c610c03565b005b61033860048036038101906103339190612a65565b610c8b565b6040516103459190613639565b60405180910390f35b610356610ca3565b005b610360610e0c565b60405161036d9190613231565b60405180910390f35b61037e610e36565b60405161038b919061333c565b60405180910390f35b6103ae60048036038101906103a99190612cca565b610ec8565b6040516103bc929190613654565b60405180910390f35b6103df60048036038101906103da9190612b94565b610eec565b005b6103fb60048036038101906103f69190612b19565b610f02565b005b61041760048036038101906104129190612cca565b610f64565b604051610424919061333c565b60405180910390f35b61043561103d565b604051610442919061361e565b60405180910390f35b6104536110dd565b005b61045d611242565b005b61047960048036038101906104749190612a8e565b611343565b60405161048691906132ff565b60405180910390f35b6104a960048036038101906104a49190612a65565b6113d7565b005b60007f80ac58cd000000000000000000000000000000000000000000000000000000007bffffffffffffffffffffffffffffffffffffffffffffffffffffffff1916827bffffffffffffffffffffffffffffffffffffffffffffffffffffffff1916148061057657507f5b5e139f000000000000000000000000000000000000000000000000000000007bffffffffffffffffffffffffffffffffffffffffffffffffffffffff1916827bffffffffffffffffffffffffffffffffffffffffffffffffffffffff1916145b806105865750610585826114cf565b5b9050919050565b60606000805461059c90613914565b80601f01602080910402602001604051908101604052809291908181526020018280546105c890613914565b80156106155780601f106105ea57610100808354040283529160200191610615565b820191906000526020600020905b8154815290600101906020018083116105f857829003601f168201915b5050505050905090565b600061062a82611539565b610669576040517f08c379a00000000000000000000000000000000000000000000000000000000081526004016106609061351e565b60405180910390fd5b6004600083815260200190815260200160002060009054906101000a900473ffffffffffffffffffffffffffffffffffffffff169050919050565b60006106af826109f9565b90508073ffffffffffffffffffffffffffffffffffffffff168373ffffffffffffffffffffffffffffffffffffffff161415610720576040517f08c379a00000000000000000000000000000000000000000000000000000000081526004016107179061357e565b60405180910390fd5b8073ffffffffffffffffffffffffffffffffffffffff1661073f6115a5565b73ffffffffffffffffffffffffffffffffffffffff16148061076e575061076d816107686115a5565b611343565b5b6107ad576040517f08c379a00000000000000000000000000000000000000000000000000000000081526004016107a49061347e565b60405180910390fd5b6107b783836115ad565b505050565b600760009054906101000a900473ffffffffffffffffffffffffffffffffffffffff1681565b600760009054906101000a900473ffffffffffffffffffffffffffffffffffffffff1673ffffffffffffffffffffffffffffffffffffffff163373ffffffffffffffffffffffffffffffffffffffff1614806108705750610841610e0c565b73ffffffffffffffffffffffffffffffffffffffff163373ffffffffffffffffffffffffffffffffffffffff16145b6108af576040517f08c379a00000000000000000000000000000000000000000000000000000000081526004016108a6906135de565b60405180910390fd5b600183146108f2576040517f08c379a00000000000000000000000000000000000000000000000000000000081526004016108e99061343e565b60405180910390fd5b6000806108ff8484611666565b9150915061090e86838361187b565b8060086000848152602001908152602001600020908051906020019061093592919061288d565b507f31e594f6b36b98ec520a91cbbba7b8724b1cec27393f86d8f0f6aa6084db0aaf868383604051610969939291906132c1565b60405180910390a1505050505050565b61098a6109846115a5565b82611881565b6109c9576040517f08c379a00000000000000000000000000000000000000000000000000000000081526004016109c0906135be565b60405180910390fd5b6109d483838361195f565b505050565b6109f483838360405180602001604052806000815250610f02565b505050565b6000806002600084815260200190815260200160002060009054906101000a900473ffffffffffffffffffffffffffffffffffffffff169050600073ffffffffffffffffffffffffffffffffffffffff168173ffffffffffffffffffffffffffffffffffffffff161415610aa2576040517f08c379a0000000000000000000000000000000000000000000000000000000008152600401610a99906134de565b60405180910390fd5b80915050919050565b60086020528060005260406000206000915090508054610aca90613914565b80601f0160208091040260200160405190810160405280929190818152602001828054610af690613914565b8015610b435780601f10610b1857610100808354040283529160200191610b43565b820191906000526020600020905b815481529060010190602001808311610b2657829003601f168201915b505050505081565b60008073ffffffffffffffffffffffffffffffffffffffff168273ffffffffffffffffffffffffffffffffffffffff161415610bbc576040517f08c379a0000000000000000000000000000000000000000000000000000000008152600401610bb39061349e565b60405180910390fd5b600360008373ffffffffffffffffffffffffffffffffffffffff1673ffffffffffffffffffffffffffffffffffffffff168152602001908152602001600020549050919050565b610c0b6115a5565b73ffffffffffffffffffffffffffffffffffffffff16610c29610e0c565b73ffffffffffffffffffffffffffffffffffffffff1614610c7f576040517f08c379a0000000000000000000000000000000000000000000000000000000008152600401610c769061353e565b60405180910390fd5b610c896000611bc6565b565b600b6020528060005260406000206000915090505481565b6000600b60003373ffffffffffffffffffffffffffffffffffffffff1673ffffffffffffffffffffffffffffffffffffffff1681526020019081526020016000205411610d25576040517f08c379a0000000000000000000000000000000000000000000000000000000008152600401610d1c906135fe565b60405180910390fd5b6000600b60003373ffffffffffffffffffffffffffffffffffffffff1673ffffffffffffffffffffffffffffffffffffffff1681526020019081526020016000205490506000600a60008381526020019081526020016000209050600a81600101541015610dc8576040517f08c379a0000000000000000000000000000000000000000000000000000000008152600401610dbf9061355e565b60405180910390fd5b610de0600a8260010154611c8c90919063ffffffff16565b8160010181905550610e0060018260000154611ca290919063ffffffff16565b81600001819055505050565b6000600660009054906101000a900473ffffffffffffffffffffffffffffffffffffffff16905090565b606060018054610e4590613914565b80601f0160208091040260200160405190810160405280929190818152602001828054610e7190613914565b8015610ebe5780601f10610e9357610100808354040283529160200191610ebe565b820191906000526020600020905b815481529060010190602001808311610ea157829003601f168201915b5050505050905090565b600a6020528060005260406000206000915090508060000154908060010154905082565b610efe610ef76115a5565b8383611cb8565b5050565b610f13610f0d6115a5565b83611881565b610f52576040517f08c379a0000000000000000000000000000000000000000000000000000000008152600401610f49906135be565b60405180910390fd5b610f5e84848484611e25565b50505050565b60606000600a60008481526020019081526020016000206040518060400160405290816000820154815260200160018201548152505090506000610fab8260000151611e81565b90506000610fbc8360200151611e81565b9050600060405180606001604052806035815260200161425a6035913990506000611009828585604051602001610ff5939291906131b2565b60405160208183030381529060405261202e565b905060008160405160200161101e919061320f565b6040516020818303038152906040529050809650505050505050919050565b611045612913565b6000600b60003373ffffffffffffffffffffffffffffffffffffffff1673ffffffffffffffffffffffffffffffffffffffff16815260200190815260200160002054905060008111156110cc57600a6000828152602001908152602001600020604051806040016040529081600082015481526020016001820154815250509150506110da565b6110d4612913565b80925050505b90565b6000600b60003373ffffffffffffffffffffffffffffffffffffffff1673ffffffffffffffffffffffffffffffffffffffff168152602001908152602001600020541461115f576040517f08c379a0000000000000000000000000000000000000000000000000000000008152600401611156906134be565b60405180910390fd5b600061116b60096121ec565b905061117733826121fa565b6040518060400160405280601481526020016000815250600a6000838152602001908152602001600020600082015181600001556020820151816001015590505080600b60003373ffffffffffffffffffffffffffffffffffffffff1673ffffffffffffffffffffffffffffffffffffffff168152602001908152602001600020819055506112066009612218565b7f60332ea0ea32e87d4013f07bec3b7ed563c70dc7c52227502d8bc8ee75f6cf563382604051611237929190613298565b60405180910390a150565b6000600b60003373ffffffffffffffffffffffffffffffffffffffff1673ffffffffffffffffffffffffffffffffffffffff16815260200190815260200160002054116112c4576040517f08c379a00000000000000000000000000000000000000000000000000000000081526004016112bb906135fe565b60405180910390fd5b6000600b60003373ffffffffffffffffffffffffffffffffffffffff1673ffffffffffffffffffffffffffffffffffffffff1681526020019081526020016000205490506000600a6000838152602001908152602001600020905061133760018260010154611ca290919063ffffffff16565b81600101819055505050565b6000600560008473ffffffffffffffffffffffffffffffffffffffff1673ffffffffffffffffffffffffffffffffffffffff16815260200190815260200160002060008373ffffffffffffffffffffffffffffffffffffffff1673ffffffffffffffffffffffffffffffffffffffff16815260200190815260200160002060009054906101000a900460ff16905092915050565b6113df6115a5565b73ffffffffffffffffffffffffffffffffffffffff166113fd610e0c565b73ffffffffffffffffffffffffffffffffffffffff1614611453576040517f08c379a000000000000000000000000000000000000000000000000000000000815260040161144a9061353e565b60405180910390fd5b600073ffffffffffffffffffffffffffffffffffffffff168173ffffffffffffffffffffffffffffffffffffffff1614156114c3576040517f08c379a00000000000000000000000000000000000000000000000000000000081526004016114ba9061339e565b60405180910390fd5b6114cc81611bc6565b50565b60007f01ffc9a7000000000000000000000000000000000000000000000000000000007bffffffffffffffffffffffffffffffffffffffffffffffffffffffff1916827bffffffffffffffffffffffffffffffffffffffffffffffffffffffff1916149050919050565b60008073ffffffffffffffffffffffffffffffffffffffff166002600084815260200190815260200160002060009054906101000a900473ffffffffffffffffffffffffffffffffffffffff1673ffffffffffffffffffffffffffffffffffffffff1614159050919050565b600033905090565b816004600083815260200190815260200160002060006101000a81548173ffffffffffffffffffffffffffffffffffffffff021916908373ffffffffffffffffffffffffffffffffffffffff160217905550808273ffffffffffffffffffffffffffffffffffffffff16611620836109f9565b73ffffffffffffffffffffffffffffffffffffffff167f8c5be1e5ebec7d5bd14f71427d1e84f3dd0314c0f7b2291e5b200ac8c7c3b92560405160405180910390a45050565b6000606060006116f185858080601f016020809104026020016040519081016040528093929190818152602001838380828437600081840152601f19601f820116905080830192505050505050506040518060400160405280600181526020017f3a00000000000000000000000000000000000000000000000000000000000000815250600061222e565b90506000811215611737576040517f08c379a000000000000000000000000000000000000000000000000000000000815260040161172e9061359e565b60405180910390fd5b60006117a3868660019060018661174e919061382a565b9261175b93929190613716565b8080601f016020809104026020016040519081016040528093929190818152602001838380828437600081840152601f19601f82011690508083019250505050505050612398565b90506000600383888890506117b8919061382a565b6117c2919061382a565b905060008114156117ea57816040518060200160405280600081525094509450505050611874565b36600088886002876117fc9190613749565b9060018c8c905061180d919061382a565b9261181a93929190613716565b9150915083828281818080601f016020809104026020016040519081016040528093929190818152602001838380828437600081840152601f19601f82011690508083019250505050505050905090509650965050505050505b9250929050565b50505050565b600061188c82611539565b6118cb576040517f08c379a00000000000000000000000000000000000000000000000000000000081526004016118c29061345e565b60405180910390fd5b60006118d6836109f9565b90508073ffffffffffffffffffffffffffffffffffffffff168473ffffffffffffffffffffffffffffffffffffffff16148061194557508373ffffffffffffffffffffffffffffffffffffffff1661192d8461061f565b73ffffffffffffffffffffffffffffffffffffffff16145b8061195657506119558185611343565b5b91505092915050565b8273ffffffffffffffffffffffffffffffffffffffff1661197f826109f9565b73ffffffffffffffffffffffffffffffffffffffff16146119d5576040517f08c379a00000000000000000000000000000000000000000000000000000000081526004016119cc906133be565b60405180910390fd5b600073ffffffffffffffffffffffffffffffffffffffff168273ffffffffffffffffffffffffffffffffffffffff161415611a45576040517f08c379a0000000000000000000000000000000000000000000000000000000008152600401611a3c906133fe565b60405180910390fd5b611a50838383612494565b611a5b6000826115ad565b6001600360008573ffffffffffffffffffffffffffffffffffffffff1673ffffffffffffffffffffffffffffffffffffffff1681526020019081526020016000206000828254611aab919061382a565b925050819055506001600360008473ffffffffffffffffffffffffffffffffffffffff1673ffffffffffffffffffffffffffffffffffffffff1681526020019081526020016000206000828254611b029190613749565b92505081905550816002600083815260200190815260200160002060006101000a81548173ffffffffffffffffffffffffffffffffffffffff021916908373ffffffffffffffffffffffffffffffffffffffff160217905550808273ffffffffffffffffffffffffffffffffffffffff168473ffffffffffffffffffffffffffffffffffffffff167fddf252ad1be2c89b69c2b068fc378daa952ba7f163c4a11628f55a4df523b3ef60405160405180910390a4611bc1838383612499565b505050565b6000600660009054906101000a900473ffffffffffffffffffffffffffffffffffffffff16905081600660006101000a81548173ffffffffffffffffffffffffffffffffffffffff021916908373ffffffffffffffffffffffffffffffffffffffff1602179055508173ffffffffffffffffffffffffffffffffffffffff168173ffffffffffffffffffffffffffffffffffffffff167f8be0079c531659141344cd1fd0a4f28419497f9722a3daafe3b4186f6b6457e060405160405180910390a35050565b60008183611c9a919061382a565b905092915050565b60008183611cb09190613749565b905092915050565b8173ffffffffffffffffffffffffffffffffffffffff168373ffffffffffffffffffffffffffffffffffffffff161415611d27576040517f08c379a0000000000000000000000000000000000000000000000000000000008152600401611d1e9061341e565b60405180910390fd5b80600560008573ffffffffffffffffffffffffffffffffffffffff1673ffffffffffffffffffffffffffffffffffffffff16815260200190815260200160002060008473ffffffffffffffffffffffffffffffffffffffff1673ffffffffffffffffffffffffffffffffffffffff16815260200190815260200160002060006101000a81548160ff0219169083151502179055508173ffffffffffffffffffffffffffffffffffffffff168373ffffffffffffffffffffffffffffffffffffffff167f17307eab39ab6107e8899845ad3d59bd9653f200f220920489ca2b5937696c3183604051611e1891906132ff565b60405180910390a3505050565b611e3084848461195f565b611e3c8484848461249e565b611e7b576040517f08c379a0000000000000000000000000000000000000000000000000000000008152600401611e729061337e565b60405180910390fd5b50505050565b60606000821415611ec9576040518060400160405280600181526020017f30000000000000000000000000000000000000000000000000000000000000008152509050612029565b600082905060005b60008214611efb578080611ee490613977565b915050600a82611ef4919061379f565b9150611ed1565b60008167ffffffffffffffff811115611f3d577f4e487b7100000000000000000000000000000000000000000000000000000000600052604160045260246000fd5b6040519080825280601f01601f191660200182016040528015611f6f5781602001600182028036833780820191505090505b5090505b6000851461202257600182611f88919061382a565b9150600a85611f9791906139c0565b6030611fa39190613749565b60f81b818381518110611fdf577f4e487b7100000000000000000000000000000000000000000000000000000000600052603260045260246000fd5b60200101907effffffffffffffffffffffffffffffffffffffffffffffffffffffffffffff1916908160001a905350600a8561201b919061379f565b9450611f73565b8093505050505b919050565b6060600082519050600081141561205757604051806020016040528060008152509150506121e7565b600060036002836120689190613749565b612072919061379f565b600461207e91906137d0565b9050600060208261208f9190613749565b67ffffffffffffffff8111156120ce577f4e487b7100000000000000000000000000000000000000000000000000000000600052604160045260246000fd5b6040519080825280601f01601f1916602001820160405280156121005781602001600182028036833780820191505090505b509050600060405180606001604052806040815260200161421a604091399050600181016020830160005b868110156121a45760038101905062ffffff818a015116603f8160121c168401518060081b905060ff603f83600c1c1686015116810190508060081b905060ff603f8360061c1686015116810190508060081b905060ff603f831686015116810190508060e01b9050808452600484019350505061212b565b5060038606600181146121be57600281146121ce576121d9565b613d3d60f01b60028303526121d9565b603d60f81b60018303525b508484525050819450505050505b919050565b600081600001549050919050565b612214828260405180602001604052806000815250612635565b5050565b6001816000016000828254019250508190555050565b600080839050600181511461226c577f4e487b7100000000000000000000000000000000000000000000000000000000600052600160045260246000fd5b60008390505b855181101561236b57816000815181106122b5577f4e487b7100000000000000000000000000000000000000000000000000000000600052603260045260246000fd5b602001015160f81c60f81b7effffffffffffffffffffffffffffffffffffffffffffffffffffffffffffff191686828151811061231b577f4e487b7100000000000000000000000000000000000000000000000000000000600052603260045260246000fd5b602001015160f81c60f81b7effffffffffffffffffffffffffffffffffffffffffffffffffffffffffffff19161415612358578092505050612391565b808061236390613977565b915050612272565b507fffffffffffffffffffffffffffffffffffffffffffffffffffffffffffffffff9150505b9392505050565b6000806000905060005b835181101561248a5760008482815181106123e6577f4e487b7100000000000000000000000000000000000000000000000000000000600052603260045260246000fd5b602001015160f81c60f81b60f81c60ff1690506030811015801561240b575060398111155b1561243b5760308161241d919061382a565b600a8461242a91906137d0565b6124349190613749565b9250612476565b6040517f08c379a000000000000000000000000000000000000000000000000000000000815260040161246d9061335e565b60405180910390fd5b50808061248290613977565b9150506123a2565b5080915050919050565b505050565b505050565b60006124bf8473ffffffffffffffffffffffffffffffffffffffff16612690565b15612628578373ffffffffffffffffffffffffffffffffffffffff1663150b7a026124e86115a5565b8786866040518563ffffffff1660e01b815260040161250a949392919061324c565b602060405180830381600087803b15801561252457600080fd5b505af192505050801561255557506040513d601f19601f820116820180604052508101906125529190612ca1565b60015b6125d8573d8060008114612585576040519150601f19603f3d011682016040523d82523d6000602084013e61258a565b606091505b506000815114156125d0576040517f08c379a00000000000000000000000000000000000000000000000000000000081526004016125c79061337e565b60405180910390fd5b805181602001fd5b63150b7a0260e01b7bffffffffffffffffffffffffffffffffffffffffffffffffffffffff1916817bffffffffffffffffffffffffffffffffffffffffffffffffffffffff19161491505061262d565b600190505b949350505050565b61263f83836126b3565b61264c600084848461249e565b61268b576040517f08c379a00000000000000000000000000000000000000000000000000000000081526004016126829061337e565b60405180910390fd5b505050565b6000808273ffffffffffffffffffffffffffffffffffffffff163b119050919050565b600073ffffffffffffffffffffffffffffffffffffffff168273ffffffffffffffffffffffffffffffffffffffff161415612723576040517f08c379a000000000000000000000000000000000000000000000000000000000815260040161271a906134fe565b60405180910390fd5b61272c81611539565b1561276c576040517f08c379a0000000000000000000000000000000000000000000000000000000008152600401612763906133de565b60405180910390fd5b61277860008383612494565b6001600360008473ffffffffffffffffffffffffffffffffffffffff1673ffffffffffffffffffffffffffffffffffffffff16815260200190815260200160002060008282546127c89190613749565b92505081905550816002600083815260200190815260200160002060006101000a81548173ffffffffffffffffffffffffffffffffffffffff021916908373ffffffffffffffffffffffffffffffffffffffff160217905550808273ffffffffffffffffffffffffffffffffffffffff16600073ffffffffffffffffffffffffffffffffffffffff167fddf252ad1be2c89b69c2b068fc378daa952ba7f163c4a11628f55a4df523b3ef60405160405180910390a461288960008383612499565b5050565b82805461289990613914565b90600052602060002090601f0160209004810192826128bb5760008555612902565b82601f106128d457805160ff1916838001178555612902565b82800160010185558215612902579182015b828111156129015782518255916020019190600101906128e6565b5b50905061290f919061292d565b5090565b604051806040016040528060008152602001600081525090565b5b8082111561294657600081600090555060010161292e565b5090565b600061295d612958846136a2565b61367d565b90508281526020810184848401111561297557600080fd5b6129808482856138d2565b509392505050565b600081359050612997816141bd565b92915050565b6000813590506129ac816141d4565b92915050565b6000813590506129c1816141eb565b92915050565b6000815190506129d6816141eb565b92915050565b60008083601f8401126129ee57600080fd5b8235905067ffffffffffffffff811115612a0757600080fd5b602083019150836001820283011115612a1f57600080fd5b9250929050565b600082601f830112612a3757600080fd5b8135612a4784826020860161294a565b91505092915050565b600081359050612a5f81614202565b92915050565b600060208284031215612a7757600080fd5b6000612a8584828501612988565b91505092915050565b60008060408385031215612aa157600080fd5b6000612aaf85828601612988565b9250506020612ac085828601612988565b9150509250929050565b600080600060608486031215612adf57600080fd5b6000612aed86828701612988565b9350506020612afe86828701612988565b9250506040612b0f86828701612a50565b9150509250925092565b60008060008060808587031215612b2f57600080fd5b6000612b3d87828801612988565b9450506020612b4e87828801612988565b9350506040612b5f87828801612a50565b925050606085013567ffffffffffffffff811115612b7c57600080fd5b612b8887828801612a26565b91505092959194509250565b60008060408385031215612ba757600080fd5b6000612bb585828601612988565b9250506020612bc68582860161299d565b9150509250929050565b60008060408385031215612be357600080fd5b6000612bf185828601612988565b9250506020612c0285828601612a50565b9150509250929050565b60008060008060608587031215612c2257600080fd5b6000612c3087828801612988565b9450506020612c4187828801612a50565b935050604085013567ffffffffffffffff811115612c5e57600080fd5b612c6a878288016129dc565b925092505092959194509250565b600060208284031215612c8a57600080fd5b6000612c98848285016129b2565b91505092915050565b600060208284031215612cb357600080fd5b6000612cc1848285016129c7565b91505092915050565b600060208284031215612cdc57600080fd5b6000612cea84828501612a50565b91505092915050565b612cfc8161385e565b82525050565b612d0b81613870565b82525050565b6000612d1c826136d3565b612d2681856136e9565b9350612d368185602086016138e1565b612d3f81613aad565b840191505092915050565b6000612d55826136de565b612d5f81856136fa565b9350612d6f8185602086016138e1565b612d7881613aad565b840191505092915050565b6000612d8e826136de565b612d98818561370b565b9350612da88185602086016138e1565b80840191505092915050565b6000612dc16023836136fa565b9150612dcc82613abe565b604082019050919050565b6000612de46032836136fa565b9150612def82613b0d565b604082019050919050565b6000612e076026836136fa565b9150612e1282613b5c565b604082019050919050565b6000612e2a6025836136fa565b9150612e3582613bab565b604082019050919050565b6000612e4d601c836136fa565b9150612e5882613bfa565b602082019050919050565b6000612e706024836136fa565b9150612e7b82613c23565b604082019050919050565b6000612e936019836136fa565b9150612e9e82613c72565b602082019050919050565b6000612eb6601a836136fa565b9150612ec182613c9b565b602082019050919050565b6000612ed9602c836136fa565b9150612ee482613cc4565b604082019050919050565b6000612efc6038836136fa565b9150612f0782613d13565b604082019050919050565b6000612f1f602a836136fa565b9150612f2a82613d62565b604082019050919050565b6000612f426020836136fa565b9150612f4d82613db1565b602082019050919050565b6000612f656029836136fa565b9150612f7082613dda565b604082019050919050565b6000612f8860048361370b565b9150612f9382613e29565b600482019050919050565b6000612fab60658361370b565b9150612fb682613e52565b606582019050919050565b6000612fce6020836136fa565b9150612fd982613eed565b602082019050919050565b6000612ff1602c836136fa565b9150612ffc82613f16565b604082019050919050565b60006130146020836136fa565b915061301f82613f65565b602082019050919050565b60006130376012836136fa565b915061304282613f8e565b602082019050919050565b600061305a6021836136fa565b915061306582613fb7565b604082019050919050565b600061307d60268361370b565b915061308882614006565b602682019050919050565b60006130a0601d8361370b565b91506130ab82614055565b601d82019050919050565b60006130c360348361370b565b91506130ce8261407e565b603482019050919050565b60006130e66014836136fa565b91506130f1826140cd565b602082019050919050565b60006131096031836136fa565b9150613114826140f6565b604082019050919050565b600061312c602b836136fa565b915061313782614145565b604082019050919050565b600061314f601a836136fa565b915061315a82614194565b602082019050919050565b60408201600082015161317b6000850182613194565b50602082015161318e6020850182613194565b50505050565b61319d816138c8565b82525050565b6131ac816138c8565b82525050565b60006131bd82612f9e565b91506131c98286612d83565b91506131d4826130b6565b91506131e08285612d83565b91506131eb82613070565b91506131f78284612d83565b915061320282612f7b565b9150819050949350505050565b600061321a82613093565b91506132268284612d83565b915081905092915050565b60006020820190506132466000830184612cf3565b92915050565b60006080820190506132616000830187612cf3565b61326e6020830186612cf3565b61327b60408301856131a3565b818103606083015261328d8184612d11565b905095945050505050565b60006040820190506132ad6000830185612cf3565b6132ba60208301846131a3565b9392505050565b60006060820190506132d66000830186612cf3565b6132e360208301856131a3565b81810360408301526132f58184612d11565b9050949350505050565b60006020820190506133146000830184612d02565b92915050565b600060208201905081810360008301526133348184612d11565b905092915050565b600060208201905081810360008301526133568184612d4a565b905092915050565b6000602082019050818103600083015261337781612db4565b9050919050565b6000602082019050818103600083015261339781612dd7565b9050919050565b600060208201905081810360008301526133b781612dfa565b9050919050565b600060208201905081810360008301526133d781612e1d565b9050919050565b600060208201905081810360008301526133f781612e40565b9050919050565b6000602082019050818103600083015261341781612e63565b9050919050565b6000602082019050818103600083015261343781612e86565b9050919050565b6000602082019050818103600083015261345781612ea9565b9050919050565b6000602082019050818103600083015261347781612ecc565b9050919050565b6000602082019050818103600083015261349781612eef565b9050919050565b600060208201905081810360008301526134b781612f12565b9050919050565b600060208201905081810360008301526134d781612f35565b9050919050565b600060208201905081810360008301526134f781612f58565b9050919050565b6000602082019050818103600083015261351781612fc1565b9050919050565b6000602082019050818103600083015261353781612fe4565b9050919050565b6000602082019050818103600083015261355781613007565b9050919050565b600060208201905081810360008301526135778161302a565b9050919050565b600060208201905081810360008301526135978161304d565b9050919050565b600060208201905081810360008301526135b7816130d9565b9050919050565b600060208201905081810360008301526135d7816130fc565b9050919050565b600060208201905081810360008301526135f78161311f565b9050919050565b6000602082019050818103600083015261361781613142565b9050919050565b60006040820190506136336000830184613165565b92915050565b600060208201905061364e60008301846131a3565b92915050565b600060408201905061366960008301856131a3565b61367660208301846131a3565b9392505050565b6000613687613698565b90506136938282613946565b919050565b6000604051905090565b600067ffffffffffffffff8211156136bd576136bc613a7e565b5b6136c682613aad565b9050602081019050919050565b600081519050919050565b600081519050919050565b600082825260208201905092915050565b600082825260208201905092915050565b600081905092915050565b6000808585111561372657600080fd5b8386111561373357600080fd5b6001850283019150848603905094509492505050565b6000613754826138c8565b915061375f836138c8565b9250827fffffffffffffffffffffffffffffffffffffffffffffffffffffffffffffffff03821115613794576137936139f1565b5b828201905092915050565b60006137aa826138c8565b91506137b5836138c8565b9250826137c5576137c4613a20565b5b828204905092915050565b60006137db826138c8565b91506137e6836138c8565b9250817fffffffffffffffffffffffffffffffffffffffffffffffffffffffffffffffff048311821515161561381f5761381e6139f1565b5b828202905092915050565b6000613835826138c8565b9150613840836138c8565b925082821015613853576138526139f1565b5b828203905092915050565b6000613869826138a8565b9050919050565b60008115159050919050565b60007fffffffff0000000000000000000000000000000000000000000000000000000082169050919050565b600073ffffffffffffffffffffffffffffffffffffffff82169050919050565b6000819050919050565b82818337600083830152505050565b60005b838110156138ff5780820151818401526020810190506138e4565b8381111561390e576000848401525b50505050565b6000600282049050600182168061392c57607f821691505b602082108114156139405761393f613a4f565b5b50919050565b61394f82613aad565b810181811067ffffffffffffffff8211171561396e5761396d613a7e565b5b80604052505050565b6000613982826138c8565b91507fffffffffffffffffffffffffffffffffffffffffffffffffffffffffffffffff8214156139b5576139b46139f1565b5b600182019050919050565b60006139cb826138c8565b91506139d6836138c8565b9250826139e6576139e5613a20565b5b828206905092915050565b7f4e487b7100000000000000000000000000000000000000000000000000000000600052601160045260246000fd5b7f4e487b7100000000000000000000000000000000000000000000000000000000600052601260045260246000fd5b7f4e487b7100000000000000000000000000000000000000000000000000000000600052602260045260246000fd5b7f4e487b7100000000000000000000000000000000000000000000000000000000600052604160045260246000fd5b6000601f19601f8301169050919050565b7f696e76616c696420696e7075742c206f6e6c79206e756d6265727320616c6c6f60008201527f7765640000000000000000000000000000000000000000000000000000000000602082015250565b7f4552433732313a207472616e7366657220746f206e6f6e20455243373231526560008201527f63656976657220696d706c656d656e7465720000000000000000000000000000602082015250565b7f4f776e61626c653a206e6577206f776e657220697320746865207a65726f206160008201527f6464726573730000000000000000000000000000000000000000000000000000602082015250565b7f4552433732313a207472616e736665722066726f6d20696e636f72726563742060008201527f6f776e6572000000000000000000000000000000000000000000000000000000602082015250565b7f4552433732313a20746f6b656e20616c7265616479206d696e74656400000000600082015250565b7f4552433732313a207472616e7366657220746f20746865207a65726f2061646460008201527f7265737300000000000000000000000000000000000000000000000000000000602082015250565b7f4552433732313a20617070726f766520746f2063616c6c657200000000000000600082015250565b7f4d696e7461626c653a20696e76616c6964207175616e74697479000000000000600082015250565b7f4552433732313a206f70657261746f7220717565727920666f72206e6f6e657860008201527f697374656e7420746f6b656e0000000000000000000000000000000000000000602082015250565b7f4552433732313a20617070726f76652063616c6c6572206973206e6f74206f7760008201527f6e6572206e6f7220617070726f76656420666f7220616c6c0000000000000000602082015250565b7f4552433732313a2062616c616e636520717565727920666f7220746865207a6560008201527f726f206164647265737300000000000000000000000000000000000000000000602082015250565b7f4f6e6c79206f6e65206e667420706572206164647265737320616c6c6f776564600082015250565b7f4552433732313a206f776e657220717565727920666f72206e6f6e657869737460008201527f656e7420746f6b656e0000000000000000000000000000000000000000000000602082015250565b7f7d205d7d00000000000000000000000000000000000000000000000000000000600082015250565b7f7b226e616d65223a202252616c6c79332e302044726976657220222c2022646560008201527f736372697074696f6e223a202252616c6c7920332e302052616c6c792044726960208201527f7665722070726f66696c6520616e64206361722064617461222c2022696d616760408201527f65223a2022000000000000000000000000000000000000000000000000000000606082015250565b7f4552433732313a206d696e7420746f20746865207a65726f2061646472657373600082015250565b7f4552433732313a20617070726f76656420717565727920666f72206e6f6e657860008201527f697374656e7420746f6b656e0000000000000000000000000000000000000000602082015250565b7f4f776e61626c653a2063616c6c6572206973206e6f7420746865206f776e6572600082015250565b7f6e6f7420656e6f7567687420706f696e74730000000000000000000000000000600082015250565b7f4552433732313a20617070726f76616c20746f2063757272656e74206f776e6560008201527f7200000000000000000000000000000000000000000000000000000000000000602082015250565b7f7d2c207b202274726169745f74797065223a2022506f696e7473222c2022766160008201527f6c7565223a200000000000000000000000000000000000000000000000000000602082015250565b7f646174613a6170706c69636174696f6e2f6a736f6e3b6261736536342c000000600082015250565b7f222c2261747472696275746573223a205b207b202274726169745f747970652260008201527f3a2022506f776572222c202276616c7565223a20000000000000000000000000602082015250565b7f536570617261746f72206d757374206578697374000000000000000000000000600082015250565b7f4552433732313a207472616e736665722063616c6c6572206973206e6f74206f60008201527f776e6572206e6f7220617070726f766564000000000000000000000000000000602082015250565b7f46756e6374696f6e2063616e206f6e6c792062652063616c6c6564206279206f60008201527f776e6572206f7220494d58000000000000000000000000000000000000000000602082015250565b7f596f7520617265206e6f7420612072616c6c7920647269766572000000000000600082015250565b6141c68161385e565b81146141d157600080fd5b50565b6141dd81613870565b81146141e857600080fd5b50565b6141f48161387c565b81146141ff57600080fd5b50565b61420b816138c8565b811461421657600080fd5b5056fe4142434445464748494a4b4c4d4e4f505152535455565758595a6162636465666768696a6b6c6d6e6f707172737475767778797a303132333435363738392b2f697066733a2f2f516d5339617a507246466d6b61393669563468434d5a435742446f356738634742364e537535614d716d5477516da2646970667358221220e0b75ead9ad3f84fcccecc9bda2e5bea532306cb3a248bf317c6dcd812575cf964736f6c63430008040033",
  "linkReferences": {},
  "deployedLinkReferences": {}
}